:020000040800F2
:1000000088170020056A0008C9140008CB140008EE
:10001000CD140008CF140008D1140008000000001F
:10002000000000000000000000000000D3140008E1
:10003000D514000800000000D7140008D9140008E7
:100040001F6A00081F6A00081F6A0008EF650008A1
:100050001F6A00081F6A0008C56600081F6A0008BA
:10006000E96600080B6700082D6700081F6A000892
:100070001F6A00081F6A00081F6A00081F6A00083C
:100080001F6A00081F6A00081F6A00081F6A00082C
:100090001F6A00081F6A00081F6A00081F6A00081C
:1000A0001F6A00081F6A00081F6A00081F6A00080C
:1000B0001F6A00081F6A00081F6A00081F6A0008FC
:1000C0001F6A00081F6A00081F6A00081F6A0008EC
:1000D0001F6A0008976900081F6A00081F6A000865
:1000E0001F6A0008C76500081F6A00081F6A000829
:1000F0001F6A00081F6A00081F6A00081F6A0008BC
:100100001F6A00081F6A00081F6A00081F6A0008AB
:100110001F6A00081F6A00081F6A00081F6A00089B
:100120001F6A00081F6A00081F6A00081F6A00088B
:100130001F6A00081F6A00081F6A00081F6A00087B
:100140001F6A00081F6A00081F6A00081F6A00086B
:100150001F6A00081F6A00081F6A00081F6A00085B
:100160001F6A00081F6A00081F6A00081F6A00084B
:100170001F6A00081F6A00081F6A00081F6A00083B
:100180001F6A00081F6A000800F002F800F04BF830
:100190000AA090E8000C82448344AAF10107DA45E2
:1001A00001D100F040F8AFF2090EBAE80F0013F0E9
:1001B000010F18BFFB1A43F00103184788B2000073
:1001C000A8B20000103A24BF78C878C1FAD8520704
:1001D00024BF30C830C144BF04680C6070470000C1
:1001E0000023002400250026103A28BF78C1FBD840
:1001F000520728BF30C148BF0B607047642909F01F
:10020000E180782909F01A81732909F0C68200205B
:1002100070471FB509F004FD9DE8030009F0FEF9E1
:100220001FBD10B510BD09F041FB1146FFF7F1FFEE
:1002300000F0D9FF09F05FFB03B4FFF7F2FF03BC46
:1002400006F04AFB70B50024002305E0C55CCE5CD7
:1002500075402C435B1CDBB29342F7D30CB10120F9
:1002600070BD002070BD70B506460D46284608F0EA
:10027000E3FF0446FF222946204609F0A7F92A4653
:1002800021463046FFF7DEFF0546204609F003F819
:10029000284670BDF8B507460D4607244FF4803652
:1002A00004222146684605F090FF04216846FFF7C6
:1002B000DAFF58B1042239466846FFF7C3FF40B160
:1002C0000834B442ECD32E600120F8BD2C6001202C
:1002D000F8BD2C600020F8BD1CB501A9FD48FFF752
:1002E000D9FF012808D001990122C91D684605F0EF
:1002F0006CFF9DF800001CBD00201CBD01B582B044
:1003000001A9F448FFF7C6FF012805D00199012291
:10031000C91D02A805F0ECFF0EBD38B5ED4C0A3C36
:1003200004E0012038BD607803280CD069465220D3
:1003300008F051FEE74808F049FFE64808F013FFCF
:100340000128F0D1EDE7002038BD1CB51024E2A053
:10035000CDE900402346C8228221142005F0EFFC9D
:10036000E4A0CDE900401023C8229621142005F016
:10037000E6FCE7A0CDE900401023C822AA21142002
:1003800005F0DDFCE9A0CDE900401023C822BE2124
:10039000142005F0D4FCD0A0CDE900401023C822E1
:1003A000D221142005F0CBFC1CBD1CB51024CAA022
:1003B000CDE900402346C8228221142005F0BFFC6D
:1003C000E1A0CDE900401023C8229621142005F0B9
:1003D000B6FCC1A0CDE900401023C822AA211420F8
:1003E00005F0ADFCDFA0CDE900401023C822BE21FE
:1003F000142005F0A4FCE2A0CDE900401023C8229F
:10040000D221142005F09BFCE4A0CDE9004010238C
:10041000C822E621142005F092FCAFA0CDE90040EF
:100420001023C822FA21142005F089FC1CBD2DE9F7
:10043000FE43A84D04240A3D6C701F2001F073FE9A
:1004400010264FF47A77FFF7B0FF687803280ED0B4
:10045000012801D00228F6D11F2001F064FEFFF729
:1004600074FFFFF75AFF012806D06C70EBE71F20DE
:1004700001F059FEBDE8FE8302A99648FFF70AFF86
:10048000A8B11F2001F04FFECBA0CDE900601023E2
:10049000DC226E211E2005F052FC06F0F5F83846ED
:1004A00006F0FFF91F2001F03EFE6C70CBE7FFF76E
:1004B00013FF2870697801EBC10202EB011100EB18
:1004C0008100C82815D91F2001F02DFEC0A0CDE95C
:1004D00000601023DC226E211E2005F030FC06F0A7
:1004E000D3F8384606F0DDF91F2001F01CFE6C70D1
:1004F000A9E7C0B2FFF702FF1F2001F014FEFFF7CB
:10050000EBFE287006F0B6F8B6A0CDE90060102327
:10051000DC226E211E2005F012FC4FF01808CDF8E9
:10052000008003232A78B4214B2005F07FFBB3A081
:10053000CDE900801023C822B421732005F0FFFB11
:1005400040F6B83006F0ADF91F2001F0ECFD6C70FC
:1005500079E77FB50446FF220821684609F036F89E
:100560004FF4803511E00822214602A805F02DFE47
:100570000822694602A8FFF765FE002807D0082276
:100580002146684605F0B4FE0834AC42EBD37FBD8B
:100590007CB5504D04200A3D68701F2001F0C3FD5A
:1005A000102497A0CDE900401023DC226E210A2000
:1005B00005F0C5FB99A0CDE900401023DC22822183
:1005C0000A2005F0BCFB9AA0CDE900401023DC22F4
:1005D00096210A2005F0B3FB6878012806D002288E
:1005E000DFD1BDE87C401F2001F09DBD1F2001F040
:1005F0009AFD96A0CDE900401023DC226E210A204E
:1006000005F09DFB0720FFF7A4FF97A0CDE9004070
:100610001023DC226E210A2005F091FB06F02AF857
:100620004FF47A7006F03DF9DBE770B506460D46EB
:10063000284608F001FE0446FF222946204608F01D
:10064000C5FF2A4621463046FFF7FCFD05462046F9
:1006500008F021FE284670BDFEB502A9FFF71AFE7C
:10066000B8B9029C4FF4803611E004F10801082269
:100670000D46684605F0A9FD08222146684605F0AA
:1006800037FE08216846FFF7D0FF20B12C46B44260
:10069000EBD30120FEBD0020FEBD7CB5FFF7DCFFE3
:1006A00010244FF47A75A0B11F2001F03CFD42A048
:1006B000CDE900401023DC226E210A2005F03FFB2B
:1006C00005F0E2FF284606F0ECF8BDE87C401F206C
:1006D000DAE0DBE00A0000203D3D3D3D3D3D3D3D93
:1006E0003D3D3D3D3D3D3D3D3D3D3D3D3D3D3D3D3A
:1006F0003D0000002A202020203D3D3D3D282828A7
:1007000028292929293D3D3D3D2020202A0000009F
:100710002A202020202020202052656164696E67F5
:100720002E2E2E20202020202A0000002A202020EB
:10073000202020204B455955503A45786974202097
:10074000202020202A0000002A20202020202020F5
:100750003C52656368617267653E2020202020203E
:100760002A0000002A2020202020204B4559313A21
:100770002031303020524D42202020202A0000001D
:100780002A2020202020204B4559323A2032303078
:1007900020524D42202020202A0000002A20202024
:1007A0002020204B455955503A2045786974202027
:1007B000202020202A0000004572726F723A4E6F8E
:1007C000742066756F6E6420757365722120000059
:1007D00042616C616E63652045786365656465643C
:1007E000210000004F4B3A526563686172676520D3
:1007F000737563636565642100000000524D42001B
:10080000546970733A41726520796F7520737572FF
:100810006520796F752077616E740000202020209C
:1008200020746F20636F6E74696E75653F00000001
:100830005965733A4B455931202020202020202033
:1008400020204E6F3A4B45593200000054697073B6
:100850003A44656C6574696E6720616C6C207573D1
:100860006572732E2E2E00004F4B3A44656C6574F2
:100870006520616C6C20757365727320737563639A
:10088000656564210000000001F04DBC1F2001F0EF
:100890004AFCFAA0CDE900401023DC226E210A2098
:1008A00005F04DFA05F0E6FE284605F0FAFFBDE832
:1008B0007C401F2001F037BC1CB5AFF2E4101024BF
:1008C000CDE900402346C8228221142005F037FAE2
:1008D000F0A0CDE900401023C8229621142005F095
:1008E0002EFAAFF20C20CDE900401023C822AA2135
:1008F000142005F024FAEEA0CDE900401023C82210
:10090000BE21142005F01BFAF0A0CDE90040102311
:10091000C822D221142005F012FAF3A0CDE900403C
:100920001023C822E621142005F009FAAFF258205E
:10093000CDE900401023C822FA21142005F0FFF968
:100940001CBD70B5EF4C042565701F2001F0EBFB5A
:10095000FFF7B2FF607803280ED1BDE870401F207A
:1009600001F0E1BB1F2001F0DEFBFFF7EEFCFFF71B
:10097000D4FC01280AD0657060780128F2D0607834
:100980000228E5D1FFF704FE6570E1E7DD480A3093
:10099000FFF783FE6570EFE7FEB5064602A9304615
:1009A000FFF778FC029910244FF47A75B1F5803F77
:1009B00013D31F2001F0B7FBD3A0CDE900401023D3
:1009C000C8226E21142005F0BAF9284605F069FF07
:1009D0001F2001F0A8FB0120FEBD90B1042230468B
:1009E00005F086FC0299C7480322091D801D05F009
:1009F0007FFC02990122C91DC24805F079FC002044
:100A0000FEBD1F2001F08FFBC6A0CDE900401023E2
:100A1000C8226E21142005F092F9284605F041FF06
:100A20001F2001F080FB0120FEBD7CB5FFF7B4FF65
:100A30001024B0B11F2001F076FBC1A0CDE9004029
:100A40001023C8226E21142005F079F905F01CFE50
:100A50004FF47A7005F025FFBDE87C401F2001F0BF
:100A600062BB1F2001F05FFBBAA0CDE9004010235C
:100A7000C8226E21142005F062F9BBA0CDE9004028
:100A80001023C8228C21142005F059F99D481825FF
:100A9000801DCDE900501023C8228721502005F089
:100AA0004EF9B3A0CDE900401023C822AA2114209A
:100AB00005F045F99348009503230278A5215020BD
:100AC00005F0B4F8AFF2CC20CDE900501023C822D5
:100AD000A521782005F033F905F0CCFD40F6B830BB
:100AE00005F0DFFEBDE87C401F2001F01CBB10B507
:100AF00086B0044605A9002007F067FB04A9002082
:100B000007F0EAFB34B1012C08D0022C09D0032CE9
:100B10002CD109E09DF8120006B010BD9DF814001C
:100B2000FAE79DF81500F7E7282008F085FB044652
:100B30009DF8150091A292A39DF81410CDE9001321
:100B4000CDE902029DF812208EA38FA1204608F065
:100B5000D5FB1020CDE900040346C8224FF496715E
:100B6000822005F0ECF8204608F095FB0020D3E742
:100B70001CB5AFF29C401024CDE900402346C822AA
:100B80008221142005F0DBF885A0CDE90040102378
:100B9000C8229621142005F0D2F8AFF2C440CDE966
:100BA00000401023C822AA21142005F0C8F883A011
:100BB000CDE900401023C822BE21142005F0BFF863
:100BC00085A0CDE900401023C822D221142005F0D1
:100BD000B6F888A0CDE900401023C822E6211420F1
:100BE00005F0ADF88AA0CDE900401023C822FA2113
:100BF000142005F0A4F8AFF22050CDE900401023F6
:100C0000C8224FF48771142005F099F81CBD3EB539
:100C100086A0D0E900128068CDE900120290394C1C
:100C200004256570FFF7A4FF0320FFF760FF6078DD
:100C300003280CD00428F5D01F2001F074FAFFF728
:100C400084FBFFF76AFB012806D06570EAE7BDE880
:100C50003E401F2001F067BA6078694600EB400013
:100C600008440188E180807820720A20207025489D
:100C70000A30FFF7DAFE6570D4E700004F4B3A44C4
:100C8000656C657465207573657220737563636543
:100C9000656421002A202020203C506C656173652A
:100CA0002053656C6563743E202020202A000000DC
:100CB0002A204B4559313A2044656C6574652061A2
:100CC00020757365722020202A0000002A204B45E1
:100CD00059323A2044656C65746520616C6C2075EE
:100CE000736572202A0000002A204B455955503A5E
:100CF00020457869742020202020202020202020DA
:100D00002A000000000000204572726F723A4D65A3
:100D10006D6F727920616C72656164792066756CA3
:100D20006C2100004572726F723A557365722061D2
:100D30006C726561647920657869737421000000C4
:100D40004572726F723A5369676E75702066616999
:100D50006C2100004F4B3A5369676E7570207375B4
:100D600063636565642100004E616D653A000000B3
:100D700042616C616E63653A000000004D00000046
:100D800048000000440000002530326425733A25F5
:100D900030326425733A2530326425730000000038
:100DA0002A202020202020203C41646420557365A7
:100DB000723E2020202020202A0000002A2020200F
:100DC000204B4559303A205A686F75204D696E673F
:100DD000666120202A0000002A202020204B45594F
:100DE000313A205875204D656E6779616E2020205C
:100DF0002A0000002A202020204B4559323A204664
:100E00007520596971696E67202020202A00000032
:100E10002A202020204B455955503A2045786974A6
:100E200020202020202020202A0000005A4D465853
:100E30004D594659510000001CB5AFF264701024A2
:100E4000CDE900402346C8228221142004F077FF18
:100E5000F8A0CDE900401023C8229621142004F008
:100E60006EFFAFF28C70CDE900401023C822AA219A
:100E7000142004F064FFF6A0CDE900401023C8223E
:100E8000BE21142004F05BFFF8A0CDE90040102340
:100E9000C822D221142004F052FFAFF28C00CDE919
:100EA00000401023C822E621142004F048FFAFF2CE
:100EB000D870CDE900401023C822FA21142004F094
:100EC0003EFF1CBD7CB5F04C042565701026FFF775
:100ED000B3FF6078032801D028B107E0BDE87C406B
:100EE0001F2001F020B9FFF792FE6570607801289D
:100EF000EDD11F2001F017F9E4A0CDE90060102327
:100F0000C8226E21142004F01AFFFFF71EFAFFF723
:100F100004FA012801D06570D9E7DB490422891C55
:100F200001F10800FFF78EF9B0B11F2001F0FBF8C6
:100F3000DDA0CDE900601023DC226E211E2004F02C
:100F4000FEFE05F0A1FB4FF47A7005F0AAFC1F200D
:100F500001F0E9F86570BAE705F08CFBFFF7F1FCEA
:100F60006570B4E71CB5E623DC228221142004F06E
:100F700078FDE423DA228421162004F072FD10218A
:100F8000D0A0CDE900100B46C82296211E2004F007
:100F9000D6FE1CBD2DE9FF410027039700241F202A
:100FA00001F0C1F81026B84DFFF7DCFFFFF7B5F9E7
:100FB000012816D1B44802A90A30FFF76BF940B3F3
:100FC0000397C6A0CDE900601023C822B4212820D1
:100FD00004F0B5FE05F058FB00F070FB1F2001F097
:100FE000A2F868780328DFD11F2001F09CF8C1A087
:100FF000CDE900601023C8226E21282004F09FFE56
:101000004FF47A7005F04DFC1F2001F08CF8BDE81C
:10101000FF819D48042203A90A30FFF713F9012834
:1010200000D10024FFF758F9287030B3641CE4B2F3
:101030004FF0180803232246B4214B20CDF800803E
:1010400004F0F4FDAFF64C00CDE900801023C82277
:10105000B421732004F073FE2878401EC0B22870BB
:10106000FFF74CF9D5F80A00039005F003FB00F0F8
:101070001AFB1F2001F057F8B3E7A3A0CDE90060E9
:101080001023C822B421282004F059FE05F0FCFAF0
:1010900000F014FB1F2001F046F8A2E71CB5142154
:1010A0007423DC22084604F0DCFC16217223DA22C9
:1010B000084604F0D6FC102499A0CDE900401E217A
:1010C0002346C822084604F03AFE9BA0CDE9004022
:1010D0001023C82232211E2004F031FE9CA0CDE94D
:1010E00000401023C82246211E2004F028FE9EA0A6
:1010F000CDE900401023C8225A211E2004F01FFE13
:10110000AFF62C20CDE900401023C8228221142004
:1011100004F015FE9AA0CDE900401023C8229621C4
:10112000142004F00CFEAFF65020CDE9004010234F
:10113000C822AA21142004F002FE98A0CDE90040A4
:101140001023C822BE21142004F0F9FD9AA0CDE995
:1011500000401023C822D221142004F0F0FD9DA0ED
:10116000CDE900401023C822E621142004F0E7FD59
:10117000AFF69C20CDE900401023C822FA211420AC
:1011800004F0DDFD1CBD04253F4C18E0012809D00A
:10119000022814D10DE01F2000F0C5FFFFF7FAFE72
:1011A00065700CE01F2000F0BEFFFFF78BFE65703E
:1011B00005E01F2000F0B7FFFFF739F96570FFF772
:1011C0006DFF60780028E6D0E0E710B51F2000F042
:1011D000AAFF87491F2008808649C00208802A4943
:1011E0000420487010BD1CB54FF4A06005F02AFC27
:1011F000A82005F015FB00F039FA05F01DFA04F0FF
:10120000D1FD05F0A4FA04F07FFF4FF4E13005F0C2
:101210006CFB00F0BCFF04F0E0FE07F08FFD7549A9
:101220004FF4784008801024734D4FF4FA764EF650
:10123000177701E12A2020202020203C4D616E619B
:10124000676520557365723E202020202A0000002B
:101250002A202020204B4559303A204164642055F3
:1012600073657220202020202A0000002A202020E0
:10127000204B4559313A2044656C6574652055739F
:10128000657220202A000000000000202A20202073
:101290002020203C41646D696E204C6F67696E3E72
:1012A000202020202A0000004572726F723A4E6F93
:1012B0006E2D41646D696E6973747261746F722111
:1012C00000000000202020203D3D3D3D282828280A
:1012D000292929293D3D3D3D202020004572726F7E
:1012E000723A4E6F742066756F6E64207573657206
:1012F00021000000546970733A2045786974696E62
:10130000672E2E2E000000004572726F723A426105
:101310006C616E6365206973206E756C6C210000D2
:1013200042757343686172676553797374656D289C
:10133000424353292020000020202040566572732C
:10134000696F6E3A20322E322020202020200000AB
:1013500020202040417574686F723A204458522012
:10136000202020202020000020202040446174659F
:101370003A20323032312F31322F322020200000FB
:101380002A202020202020203C4465736B746F703D
:101390003E202020202020202A0000002A2020207B
:1013A000204B455930203C52756E6E696E673E2069
:1013B000202020202A0000002A202020204B4559F0
:1013C00031203C4D616E61676520557365723E202A
:1013D0002A0000002A202020204B455932203C5270
:1013E000656368617267653E202020202A00000046
:1013F0002600002024000020008042421EA0CDE9EB
:1014000000401023C8225A211E2004F098FC3046C8
:1014100005F047FA1EA1CDE900411023C8225A2148
:101420001E2004F08CFC304605F03BFAD5F8A402EF
:1014300000B30020C5F8A40204F04AFEB842DDD192
:1014400018A0CDE900401023C8225A211E2004F024
:1014500076FC18A0CDE900401023C8226E211E2082
:1014600004F06DFC4FF4FA6005F01BFAFFF7ADFED7
:10147000FFF789FE0120DDE7573235513132382040
:10148000436865636B204661696C656421000000F8
:10149000506C6561736520436865636B2120202073
:1014A0002020200057323551313238205265616496
:1014B0007921000053797374656D206C6F616469E4
:1014C0006E672E2E2E0000007047FEE7FEE7FEE757
:1014D000FEE7704770477047704700000CB5002268
:1014E000019200925849086840F4803008604FF437
:1014F000A043086800F4003000900198401C01905F
:10150000009810B901989842F3D10868800302D579
:101510000120009000E000920098012831D14A4853
:101520004030026842F0805202604848026842F44B
:10153000404202604448083002680260026842F497
:1015400000420260026842F4A0520260021F404B57
:1015500013600A6842F080720A600A689201FCD542
:101560003C4A40F205711160016821F003010160FD
:10157000016841F0020101600168C1F381010229A3
:10158000FAD10CBD10B53448016841F47001016016
:101590002D48016841F0010101602B4A0021083209
:1015A000116002682D4B1A400260031D2C4A1A601C
:1015B000026822F48022026023480C300160FFF7A9
:1015C0008DFF25494FF000608039086010BD70B56F
:1015D0001D4E0836306800F00C00224B22490028CE
:1015E0000FD05D1004280ED008280ED00B60306894
:1015F0001D4AC0F30310121D105C0A68C2400A6045
:1016000070BD0B60F3E70D60F1E70F4A121D106823
:10161000C0F38054106800F03F0034B1B5FBF0F027
:101620001368C3F38813584305E0B3FBF0F0136865
:10163000C3F3881358431268C2F30142521C52008C
:10164000B0FBF2F00860D2E70038024000700040C2
:1016500008544007003C024088ED00E0FFFFF6FE22
:10166000103000240024F400100000207CB501217B
:10167000202005F02CFF4FF4C064009401208DF869
:10168000040000228DF8062003228DF805208DF835
:101690000700104D6946284605F0C6FA214628463F
:1016A00005F02AFB7CBD10B50B4C002020604FF4E8
:1016B000FA6005F0F6F80120206010BD10B5064C68
:1016C0000020241F20604FF4FA6005F0EAF80120A2
:1016D000206010BD00140240A882424201B5BDF84E
:1016E00000000090BDF80000FA49088008BD01B56F
:1016F000BDF800000090BDF80000F649891C088084
:1017000008BD08B5F348801C00880090BDF80000B3
:1017100008BDF04A10805180704710B5FFF7DEFF1A
:10172000052005F090F8BDE81040EAE7EA48E949ED
:10173000008908807047E749891C08807047C0F31A
:101740004511C20AC00200EB4110104480B270473C
:10175000401EC0B2FCD270472DE9F04102460C4653
:10176000DD4D260A2846A988170A4089A1F51343AA
:10177000413B1CD0A1F5A643103B18D02B46A1F548
:10178000D04893F806C01B889B1A5B1EB8F104086A
:101790001FD0A1F5C858B8F1630830D0A1F5A04812
:1017A000B8F5A26866D0BCF1010F7DD081E0FFF7EB
:1017B00095FF3846FFF79BFFD0B2FFF798FFA88947
:1017C000FFF78CFF3046FFF792FFE0B2BDE8F04133
:1017D0008DE7BCF1010F00D19AB2FFF77FFF100A2D
:1017E000FFF785FFD0B2FFF782FFA889FFF776FFEA
:1017F0003046FFF77CFFE0B2BDE8F04177E7BCF18F
:10180000000F27D0FFF76AFF3846FFF770FFD0B20E
:10181000FFF76DFF2888401EC0F30F20FFF767FF1A
:101820002878401EC0B2FFF762FFA889FFF756FF75
:101830003046FFF75CFFE0B2FFF759FF6888401EB3
:10184000C0F30F20FFF753FFA878BDE8F041401E1A
:10185000C0B24CE79AB2FFF741FF0020FFF747FF05
:101860000020FFF744FF100AFFF741FFD0B2FFF757
:101870003EFFDAE7FFF732FF3846FFF738FF6889A7
:10188000401C80B2FFF72AFFD0B2FFF730FFA889D3
:10189000FFF724FF3046FFF72AFFA889401C80B2DB
:1018A000FFF71CFFE0B200E002E0BDE8F0411EE7F8
:1018B0009AB21146FFF72DFFA8892146BDE8F041F5
:1018C00027E72DE9F04300240027DFF80C82B8F861
:1018D0000020824203D9B8F802208A4202D80020B0
:1018E000BDE8F083FFF738FFB8F8040049F241394A
:1018F00041F6631245F2103545F21056484507D0BF
:10190000A0F5D041043903D0A84201D0904203D1C0
:101910002E20FFF7E3FE09E0B04204D14FF4385027
:10192000FFF7DCFE02E02220FFF7D8FEB8F8040043
:10193000A0F51341203902D10220FFF709FFFFF77C
:10194000E0FEB8F804109142CAD00220FFF700FF71
:10195000FFF7D7FE0246B8F80400484503D0A84276
:1019600001D0B0420AD10220FFF7F2FEFFF7C9FE14
:101970000746D0B24FF6FF7101EA0024B8F8041010
:10198000A1F5134025381DD0A1F58A40353819D06E
:10199000A1F58A40313815D0A1F53540053811D070
:1019A000A1F5454005380DD0494503D0A94201D0E5
:1019B000B14209D1D00AC002A10A40EA411040EA6E
:1019C000D7208DE710468BE7BDE8F0431046B6E61A
:1019D00041488088A0F51341413913D0A0F5D0418A
:1019E00004390FD0A0F5A64110390BD0A0F5C8518D
:1019F000633907D0A0F5AA41103905D040F2731120
:101A0000072086E6292069E64FF4245066E632482E
:101A10008088A0F51341413912D0A0F5D041043996
:101A20000ED0A0F5A64110390AD0A0F5C8516339EF
:101A300006D0A0F5AA41103904D00021072068E69D
:101A400028204BE64FF4205048E6F0B50023224C06
:101A500046F604072146A279898841F66315012AD2
:101A600003D1B94201D0A94202D1C2B9A94216D1CB
:101A7000082814D2DFE800F00406080A0C0E101241
:101A800006200CE007200AE0042008E0052006E01C
:101A9000012004E0002002E0032000E00220A1F584
:101AA000134C45F2103245F21056BCF1410C07D0F0
:101AB000B94205D0914203D0B14201D0A9427CD1B4
:101AC000082816D2DFE800F015040A0C0E101214D4
:101AD00080230EE07E00006C4C000020402308E0D4
:101AE000C02306E0202304E0602302E0A02300E0FE
:101AF000E023B14202D14FF4585000E03620914229
:101B000005D0B14203D0A94201D043F00803B94245
:101B100001D143F002031946FFF7FBFDA188A9425A
:101B20000ED0980606D520886288904208D222807E
:101B3000608005E020886288904201D92280608020
:101B4000B14248D16089FFF7C9FD0020FFF7CFFD02
:101B50006089401C80B2FFF7C1FD0020FFF7C7FD80
:101B60006089801C80B2FFF7B9FD2088401EC0F359
:101B70000F20FFF7BCFD6089C01C80B2FFF7AEFDEF
:101B80002078401EC0B2FFF7B2FDA089FFF7A6FD86
:101B90000020FFF7ACFDA089401C80B2FFF79EFD3E
:101BA0000020FFF7A4FDA089801C80B2FFF796FDFE
:101BB0006088401EC0F30F2000E035E0FFF797FD7E
:101BC000A089C01C80B2FFF789FDA078BDE8F04075
:101BD000401EC0B28BE56089FFF780FD0020FFF753
:101BE00086FD0020FFF783FD2088401EC0F30F20F4
:101BF000FFF77DFD2078401EC0B2FFF778FDA08979
:101C0000FFF76CFD0020FFF772FD0020FFF76FFD6E
:101C10006088401EC0F30F20FFF769FDA078BDE883
:101C2000F040401EC0B262E5082812D2DFE800F0A2
:101C3000040608110A0C0E1030230AE0102308E0F5
:101C4000202306E0382304E0282302E0182300E0E4
:101C50000823032043F48051BDE8F04059E500B566
:101C6000FFF77AFDFFF762FDFE48FF490088088014
:101C700000BD2DE9F04104460D469046FB4E2F0A6B
:101C80003046B188220A4089A1F51343413B19D05F
:101C9000A1F5A643103B15D0A1F5AA43103B23D0D4
:101CA0003346A1F5C85C9A791B881B1B5B1EBCF1EF
:101CB000630C35D0A1F5D04CBCF1040C51D0012AF5
:101CC00064D064E0FFF70AFD1046FFF710FDE0B2B4
:101CD000FFF70DFDB089FFF701FD3846FFF707FD5F
:101CE000E8B2FFF704FD59E0FFF7F8FC1046FFF7F4
:101CF000FEFC7089401C80B2FFF7F0FCE0B2FFF7F9
:101D0000F6FCB089FFF7EAFC3846FFF7F0FCB08933
:101D1000401C80B2FFF7E2FCE8B2FFF7E8FC3DE0D0
:101D200002B99CB2FFF7DAFC220A1046FFF7DFFC8B
:101D3000E0B2FFF7DCFC1046FFF7D9FCE0B2FFF79A
:101D4000D6FCB089FFF7CAFC3846FFF7D0FCE8B2F2
:101D5000FFF7CDFC3846FFF7CAFCE8B2FFF7C7FC37
:101D60001CE0012A00D19CB2FFF7B8FC200AFFF763
:101D7000BEFCE0B2FFF7BBFCB089FFF7AFFC384612
:101D8000FFF7B5FCE8B2FFF7B2FC07E09CB22146D2
:101D9000FFF7BFFCB0892946FFF7BBFCB248318989
:101DA000801E0180A0F80280BDE8F08110B50246D7
:101DB000BE20FFF793FC0520FFF799FC104607F0C3
:101DC0001EFE9FEDAB1B53EC112B07F02BFE07F013
:101DD000E9FD80B2FFF78BFC0120FFF788FCFF20B4
:101DE000FFF785FC0020FFF782FCBDE810400020D3
:101DF0007DE42DE9F04F9D492A232B24898845F263
:101E0000105C4FF430584FF428594FF448754FF098
:101E1000F00A49F2413B4FF4A07745F210364FF4F7
:101E2000F072002810D091484FF0010E80F806E0C3
:101E30000780A0F802A0594501D0B14240D12C251D
:101E40000581438184815CE088484FF0000E80F872
:101E500006E0A0F800A04780594506D0A1F5D04A79
:101E6000BAF1040A01D0B1420CD12C25058143817D
:101E70008481A1F5D043043B01D0B14249D1078010
:101E8000428046E0614509D1A0F80880A0F80A9098
:101E90004FF42C518181028045803AE0A1F5C8566B
:101EA000633E06D0222101812021418121218181AF
:101EB0002FE02C210181448183810280458028E02C
:101EC000A1F5D04ABAF1040A0BD061450ED1A0F8B1
:101ED0000880A0F80A904FF42C538381058042803B
:101EE0000FE02C250581448183810AE0A1F5C85CBF
:101EF000BCF1630C11D022230381212343812023D1
:101F00008381A1F5D043043B01D0B14201D10280CD
:101F10004780BDE8F04F002097E54FF02C0CA0F86B
:101F200008C04381848105804280EAE72DE9FC4FA7
:101F300004460D46A018401E87B205EB030CACF119
:101F4000010C1FFA8CF6DFF824E1A3185B1EBEF823
:101F50000400C3F307230193230A00937346A0F5FB
:101F600013415B89CCF307284FEA1529413910D07A
:101F7000A0F5A64110390CD0A0F5D041043908D005
:101F80009EF806A041F6631BBAF1010F22D1584515
:101F900020D172461846FFF7A1FB0098FFF7A7FB78
:101FA000E0B2FFF7A4FB0198FFF7A1FBF8B2FFF73F
:101FB0009EFB9089FFF792FB4846FFF798FBE8B23B
:101FC000FFF795FB4046FFF792FBF0B2BDE8FC4FF0
:101FD000FFF78DBB25495845098828D1881A001B71
:101FE000764684B21FFA8CF71846FFF777FB200A73
:101FF000FFF77DFBE0B2FFF77AFB2244521EC2F3EB
:102000000F20FFF774FBD0B2FFF771FBB089FFF729
:1020100065FB4846FFF76BFBE8B2FFF768FB380A41
:10202000FFF765FBF8B2BDE8FC4FFFF760BBA0F51A
:10203000A04C7246BCF5A26C2ED0BAF1010F69D04B
:1020400020463B462F4650224FF051084FF0520990
:102050004FF0530A01461046FFF75BFB1946404616
:102060000AE00000240000208000006C4C000020EA
:102070006666666666660440FFF74BFB394648466F
:10208000FFF747FB31465046FFF743FB2946204602
:10209000BDE8FC4FFFF760BB1846FFF71FFB009839
:1020A000FFF725FB5089401C80B2FFF717FBE0B219
:1020B000FFF71DFB5089801C80B2FFF70FFB0198D2
:1020C000FFF715FB5089C01C80B2FFF707FBF8B281
:1020D000FFF70DFB9089FFF701FB4846FFF707FB71
:1020E0009089401C80B2FFF7F9FAE8B2FFF7FFFAD7
:1020F0009089801C80B2FFF7F1FA4046FFF7F7FAAB
:102100009089C01C80B2FFF7E9FAF0B2BDE8FC4F3D
:10211000FFF7EDBA28463346CA1B521E97B2091B79
:10212000491E8EB28FE72DE9F04306460024FE4F8C
:1021300038887D884543B888A0F5D041043902D15C
:10214000B879012808D000210846FFF705FBFFF702
:10215000EDFA4FF0D84117E00020B8714FF02A098E
:10216000A7F80A904FF02B08A7F80C80002108462A
:10217000FFF7F2FA0120B871A7F80A80A7F80C90CF
:10218000E5E7A1F88060641CAC42FAD319E42DE9BC
:10219000F04FA1B00024209401217A2005F097F996
:1021A0000121084605F0ABF94FF4004ACDF878A0BC
:1021B00001208DF87C008DF87E4002208DF87D0096
:1021C00001208DF87F001EA9D84804F02DFD4CF2A7
:1021D00033701E9002208DF87C008DF87E40032520
:1021E0008DF87D5001208DF87F001EA9D04804F0A5
:1021F0001BFD4FF680701E9002208DF87C008DF83C
:102200007E408DF87D5001208DF87F00C94F1EA9BA
:10221000384604F009FDBE141E9602208DF87C009D
:102220008DF87E408DF87D5001208DF87F00DFF81D
:1022300008831EA9404604F0F7FC1E9602208DF884
:102240007C008DF87E408DF87D5001208DF87F0058
:10225000BA4D1EA9284604F0E7FC0C220021B44820
:1022600004F05AFD0C220121B14804F055FD0C2266
:102270000421AF4804F050FD0C220521AC4804F0C5
:102280004BFD0C220821AA4804F046FD0C2209212E
:10229000A74804F041FD0C220A21A54804F03CFDAA
:1022A0000C220E21A24804F037FD0C220F21A04879
:1022B00004F032FD0C220721384604F02DFD0C22DB
:1022C0000821384604F028FD0C220921384604F084
:1022D00023FD0C220A21384604F01EFD0C220B219E
:1022E000384604F019FD0C221146384604F014FD5E
:1022F0000C220D21384604F00FFD0C220E21384629
:1023000004F00AFD0C220F21384604F005FD0C22D2
:102310001146404604F000FD0C221146284604F008
:10232000FBFC0F20089009943C200A900B940C941D
:102330000D940E94092001900294082003900494B7
:1023400005940694079406200F9010941194102081
:102350001290139415941494169417941896199433
:1023600080021A901B9408A81C9001A81D900FA829
:1023700004F010FD0121062004F086FD322004F057
:1023800090FA01210020FFF7C4F9322004F089FA05
:102390000020FFF7C2F9644CA0804FF6FF7649F2A7
:1023A000413945F2103745F2105541F6631246F6B1
:1023B0000408FF2804D3B04202D0B0F5134F75D102
:1023C000D320FFF78BF9FFF79CF9A080FFF799F96D
:1023D000A080FFF796F906EA0020A080FFF791F9A8
:1023E000A1880843A080484560D0BF20FFF776F958
:1023F000FFF787F9A080FFF784F9A080FFF781F944
:10240000A080FFF77EF906EA0020A080FFF779F9A7
:10241000A1880843A080404548D0D420FFF75EF94A
:10242000FFF76FF9A080FFF76CF9A080FFF769F95B
:1024300006EA0020A080FFF764F9A1880843A08085
:10244000B84233D04FF45A40FFF748F9FFF759F933
:10245000A0804FF45B40FFF741F9FFF752F906EA1D
:102460000020A0804FF45C40FFF738F9FFF749F9EE
:10247000A1880843A080504500D1A580A088A8422B
:1024800014D0A120FFF72AF9FFF73BF9A080FFF74E
:1024900038F906EA0020A080FFF733F9A188084345
:1024A000A080A0F5AE41613900D1A280A0884FF094
:1024B00020434CF20551484505D0B84203D0A8420C
:1024C00001D0904212D103F58E731C6824F00F04E2
:1024D0001C601C6824F470641C601C6844F00304D5
:1024E0001C601C6844F400741C6015E0404501D079
:1024F000884211D103F58E731C6824F00F041C6010
:102500001C6824F470641C601C6844F00A041C609D
:102510001C6844F440641C6048457DD1CF20FFF71F
:10252000DDF800200CE000004C0000200004024018
:10253000000C02400010024000140240001802404B
:10254000FFF7D5F8C120FFF7D2F83020FFF7CFF81A
:10255000ED20FFF7C3F86420FFF7C9F80320FFF769
:10256000C6F81220FFF7C3F88120FFF7C0F8E82073
:10257000FFF7B4F88520FFF7BAF81020FFF7B7F897
:102580007A20FFF7B4F8CB20FFF7A8F83920FFF73F
:10259000AEF82C20FFF7ABF80020FFF7A8F83420A6
:1025A000FFF7A5F80220FFF7A2F8F720FFF796F84B
:1025B0002020FFF79CF8EA20FFF790F80020FFF7B3
:1025C00096F80020FFF793F8C020FFF787F81B204C
:1025D000FFF78DF8C120FFF781F80120FFF787F89A
:1025E000C520FFF77BF83020FFF781F83020FFF798
:1025F0007EF8C720FFF772F8B720FFF778F836208B
:10260000FFF76CF84820FFF772F83A20FFF766F8FA
:102610005520FFF76CF800E0A6E0B120FFF75EF868
:102620000020FFF764F81A20FFF761F8B620FFF7E3
:1026300055F80A20FFF75BF8A220FFF758F8F220C0
:10264000FFF74CF80020FFF752F82620FFF746F876
:102650000120FFF74CF8E020FFF740F80F20FFF7CC
:1026600046F82A20FFF743F82820FFF740F8082013
:10267000FFF73DF80E20FFF73AF80820FFF737F88C
:102680005420FFF734F8A920FFF731F84320FFF773
:102690002EF80A20FFF72BF80F20FFF728F800206C
:1026A000FFF725F80020FFF722F80020FFF71FF8BA
:1026B0000020FFF71CF8E120FFF710F80020FFF7DB
:1026C00016F81520FFF713F81720FFF710F807206A
:1026D000FFF70DF81120FFF70AF80620FFF707F8BB
:1026E0002B20FFF704F85620FFF701F83C20FEF7F7
:1026F000FEFF0520FEF7FBFF1020FEF7F8FF0F207E
:10270000FEF7F5FF3F20FEF7F2FF3F20FEF7EFFF59
:102710000F20FEF7ECFF2B20FEF7E0FF0020FEF776
:10272000E6FF0020FEF7E3FF0120FEF7E0FF3F2079
:10273000FEF7DDFF2A20FEF7D1FF0020FEF7D7FFCE
:102740000020FEF7D4FF0020FEF7D1FFEF20FEF7B8
:10275000CEFF1120FEF7C2FF782004F0A2F8292056
:10276000FEF7BCFF02F053BF40457CD11120FEF7BD
:10277000B5FF142004F095F8D020FEF7AFFF072036
:10278000FEF7B5FF4220FEF7B2FF1D20FEF7AFFFB8
:10279000D120FEF7A3FF0020FEF7A9FF1A20FEF7C5
:1027A000A6FF0920FEF7A3FFD220FEF797FF012026
:1027B000FEF79DFF2220FEF79AFFC020FEF78EFF56
:1027C0001020FEF794FF3B20FEF791FF0020FEF75C
:1027D0008EFF0220FEF78BFF1120FEF788FFC52039
:1027E000FEF77CFF0320FEF782FFC820FEF776FF8E
:1027F0000020FEF77CFF2520FEF779FF2120FEF761
:1028000076FF0520FEF773FF0020FEF770FF0A2019
:10281000FEF76DFF6520FEF76AFF2520FEF767FFD4
:102820007720FEF764FF5020FEF761FF0F20FEF7D0
:102830005EFF0020FEF75BFFF820FEF74FFF012050
:10284000FEF755FFFE20FEF749FF0020FEF74FFF81
:102850000220FEF74CFF2020FEF740FF3620FEF757
:102860003DFF082000E02CE0FEF741FF3A20FEF794
:1028700035FF5520FEF73BFF2B20FEF72FFF0020F2
:10288000FEF735FF0020FEF732FF0120FEF72FFF95
:102890003F20FEF72CFF2A20FEF720FF0020FEF746
:1028A00026FF0020FEF723FF0120FEF720FFDF2098
:1028B000FEF71DFF782003F0F4FF2920FEF70EFF3E
:1028C00050E7B8427ED1ED20FEF708FF0120FEF769
:1028D0000EFFFE20FEF70BFFEE20FEF7FFFEDE20D0
:1028E000FEF705FF2120FEF702FFF120FEF7F6FEBE
:1028F0000120FEF7FCFEDF20FEF7F0FE1020FEF7C1
:10290000F6FEC420FEF7EAFE8F20FEF7F0FEC6209A
:10291000FEF7E4FE0020FEF7EAFEE220FEF7E7FE07
:10292000E220FEF7E4FEE220FEF7E1FEBF20FEF724
:10293000D5FEAA20FEF7DBFEB020FEF7CFFE0D206D
:10294000FEF7D5FE0020FEF7D2FE0D20FEF7CFFEEB
:102950000020FEF7CCFE1120FEF7C9FE0020FEF796
:10296000C6FE1920FEF7C3FE0020FEF7C0FE2120A0
:10297000FEF7BDFE0020FEF7BAFE2D20FEF7B7FEE3
:102980000020FEF7B4FE3D20FEF7B1FE0020FEF76A
:10299000AEFE5D20FEF7ABFE0020FEF7A8FE5D2038
:1029A000FEF7A5FE0020FEF7A2FEB120FEF796FE80
:1029B0008020FEF79CFE0020FEF799FE8B20FEF79C
:1029C00096FE00E0FDE30020FEF791FE9620FEF764
:1029D0008EFE0020FEF78BFEB220FEF77FFE002069
:1029E000FEF785FE0020FEF782FE0220FEF77FFE46
:1029F0000020FEF77CFE0320FEF779FE0020FEF7A4
:102A000076FEB320FEF76AFE0020FEF770FE00207F
:102A1000FEF76DFE0020FEF76AFE0020FEF767FE5F
:102A20000020FEF764FE0020FEF761FE0020FEF7A6
:102A30005EFE0020FEF75BFE0020FEF758FE002041
:102A4000FEF755FE0020FEF752FE0020FEF74FFE77
:102A50000020FEF74CFE0020FEF749FE0020FEF7A6
:102A600046FE0020FEF743FE0020FEF740FE002059
:102A7000FEF73DFE0020FEF73AFE0020FEF737FE8F
:102A80000020FEF734FE0020FEF731FE0020FEF7A6
:102A90002EFE0020FEF72BFEB420FEF71FFE8B203B
:102AA000FEF725FE0020FEF722FE9620FEF71FFE11
:102AB0000020FEF71CFEA120FEF719FE0020FEF705
:102AC00016FEB520FEF70AFE0220FEF710FE0020DB
:102AD000FEF70DFE0320FEF70AFE0020FEF707FEBC
:102AE0000420FEF704FE0020FEF701FEB620FEF7EC
:102AF000F5FD0020FEF7FBFD0020FEF7F8FDB720F6
:102B0000FEF7ECFD0020FEF7F2FD0020FEF7EFFDE2
:102B10003F20FEF7ECFD0020FEF7E9FD5E20FEF70A
:102B2000E6FD0020FEF7E3FD6420FEF7E0FD002057
:102B3000FEF7DDFD8C20FEF7DAFD0020FEF7D7FD65
:102B4000AC20FEF7D4FD0020FEF7D1FDDC20FEF71F
:102B5000CEFD0020FEF7CBFD7020FEF7C8FD002063
:102B6000FEF7C5FD9020FEF7C2FD0020FEF7BFFD79
:102B7000EB20FEF7BCFD0020FEF7B9FDDC20FEF7E0
:102B8000B6FD0020FEF7B3FDB820FEF7A7FD00203C
:102B9000FEF7ADFD0020FEF7AAFD0020FEF7A7FD21
:102BA0000020FEF7A4FD0020FEF7A1FD0020FEF7A7
:102BB0009EFD0020FEF79BFD0020FEF798FDBA2049
:102BC000FEF78CFD2420FEF792FD0020FEF78FFD1E
:102BD0000020FEF78CFD0020FEF789FDC120FEF7E6
:102BE0007DFD2020FEF783FD0020FEF780FD5420B0
:102BF000FEF77DFD0020FEF77AFDFF20FEF777FD52
:102C00000020FEF774FDC220FEF768FD0A20FEF7E3
:102C10006EFD0020FEF76BFD0420FEF768FD00202E
:102C2000FEF765FDC320FEF759FD3C20FEF75FFD72
:102C30000020FEF75CFD3A20FEF759FD0020FEF76C
:102C400056FD3920FEF753FD0020FEF750FD3720DA
:102C5000FEF74DFD0020FEF74AFD3C20FEF747FD44
:102C60000020FEF744FD3620FEF741FD0020FEF770
:102C70003EFD3220FEF73BFD0020FEF738FD2F2001
:102C8000FEF735FD0020FEF732FD2C20FEF72FFD6C
:102C90000020FEF72CFD2920FEF729FD0020FEF77D
:102CA00026FD2620FEF723FD0020FEF720FD242030
:102CB000FEF71DFD0020FEF71AFD2420FEF717FD8C
:102CC0000020FEF714FD2320FEF711FD0020FEF783
:102CD0000EFD3C20FEF70BFD0020FEF708FD362020
:102CE000FEF705FD0020FEF702FD3220FEF7FFFC97
:102CF0000020FEF7FCFC2F20FEF7F9FC0020FEF779
:102D0000F6FC2C20FEF7F3FC0020FEF7F0FC292057
:102D1000FEF7EDFC0020FEF7EAFC2620FEF7E7FCBC
:102D20000020FEF7E4FC2420FEF7E1FC0020FEF783
:102D3000DEFC2420FEF7DBFC0020FEF7D8FC23207D
:102D4000FEF7D5FC0020FEF7D2FCC420FEF7C6FC3F
:102D50006220FEF7CCFC0020FEF7C9FC0520FEF740
:102D6000C6FC0020FEF7C3FC8420FEF7C0FC002058
:102D7000FEF7BDFCF020FEF7BAFC0020FEF7B7FC22
:102D80001820FEF7B4FC0020FEF7B1FCA420FEF7EB
:102D9000AEFC0020FEF7ABFC1820FEF7A8FC0020DC
:102DA000FEF7A5FC5020FEF7A2FC0020FEF79FFCDA
:102DB0000C20FEF79CFC0020FEF799FC1720FEF784
:102DC00096FC0020FEF793FC9520FEF790FC002077
:102DD000FEF78DFCF320FEF78AFC0020FEF787FC4F
:102DE000E620FEF784FC0020FEF781FCC520FEF7FC
:102DF00075FC3220FEF77BFC0020FEF778FC4420B7
:102E0000FEF775FC0020FEF772FC6520FEF76FFCF4
:102E10000020FEF76CFC7620FEF769FC0020FEF730
:102E200066FC8820FEF763FC0020FEF760FCC620ED
:102E3000FEF754FC2020FEF75AFC0020FEF757FC5A
:102E40001720FEF754FC0020FEF751FC0120FEF78E
:102E50004EFC0020FEF74BFCC720FEF73FFC002095
:102E6000FEF745FC0020FEF742FC0020FEF73FFC89
:102E70000020FEF73CFCC820FEF730FC0020FEF7E7
:102E800036FC0020FEF733FC0020FEF730FC00206B
:102E9000FEF72DFCC920FEF721FC0020FEF727FCE1
:102EA0000020FEF724FC0020FEF721FC0020FEF7A6
:102EB0001EFC0020FEF71BFC0020FEF718FC002083
:102EC000FEF715FC0020FEF712FC0020FEF70FFCB9
:102ED0000020FEF70CFC0020FEF709FC0020FEF7A6
:102EE00006FC0020FEF703FC0020FEF700FC00209B
:102EF000FEF7FDFB0020FEF7FAFBE020FEF7EEFBFD
:102F00001620FEF7F4FB0020FEF7F1FB1C20FEF775
:102F1000EEFB0020FEF7EBFB2120FEF7E8FB002094
:102F2000FEF7E5FB3620FEF7E2FB0020FEF7DFFBB5
:102F30004620FEF7DCFB0020FEF7D9FB5220FEF70F
:102F4000D6FB0020FEF7D3FB6420FEF7D0FB002069
:102F5000FEF7CDFB7A20FEF7CAFB0020FEF7C7FB89
:102F60008B20FEF7C4FB0020FEF7C1FB9920FEF783
:102F7000BEFB0020FEF7BBFBA820FEF7B8FB00203D
:102F8000FEF7B5FBB920FEF7B2FB0020FEF7AFFB62
:102F9000C420FEF7ACFB0020FEF7A9FBCA20FEF719
:102FA000A6FB0020FEF7A3FBD220FEF7A0FB00202B
:102FB000FEF79DFBD920FEF79AFB0020FEF797FB5A
:102FC000E020FEF794FB0020FEF791FBF320FEF7D4
:102FD0008EFB0020FEF78BFBE120FEF77FFB162027
:102FE000FEF785FB0020FEF782FB1C20FEF77FFB2F
:102FF0000020FEF77CFB2220FEF779FB0020FEF785
:1030000076FB3620FEF773FB0020FEF770FB4520B1
:10301000FEF76DFB0020FEF76AFB5220FEF767FB10
:103020000020FEF764FB6420FEF761FB0020FEF742
:103030005EFB7A20FEF75BFB0020FEF758FB8B203F
:10304000FEF755FB0020FEF752FB9920FEF74FFBE1
:103050000020FEF74CFBA820FEF749FB0020FEF7FE
:1030600046FBB920FEF743FB0020FEF740FBC420DF
:10307000FEF73DFB0020FEF73AFBCA20FEF737FBC8
:103080000020FEF734FBD220FEF731FB0020FEF7D4
:103090002EFBD820FEF72BFB0020FEF728FBE020BC
:1030A000FEF725FB0020FEF722FBF320FEF71FFBB7
:1030B0000020FEF71CFBE220FEF710FB0520FEF7C8
:1030C00016FB0020FEF713FB0B20FEF710FB002081
:1030D000FEF70DFB1B20FEF70AFB0020FEF707FBA7
:1030E0003420FEF704FB0020FEF701FB4420FEF72E
:1030F000FEFA0020FEF7FBFA4F20FEF7F8FA002058
:10310000FEF7F5FA6120FEF7F2FA0020FEF7EFFA7B
:103110007920FEF7ECFA0020FEF7E9FA8820FEF7A6
:10312000E6FA0020FEF7E3FA9720FEF7E0FA002027
:10313000FEF7DDFAA620FEF7DAFA0020FEF7D7FA4E
:10314000B720FEF7D4FA0020FEF7D1FAC220FEF72E
:10315000CEFA0020FEF7CBFAC720FEF7C8FA00200F
:10316000FEF7C5FAD120FEF7C2FA0020FEF7BFFA3B
:10317000D620FEF7BCFA0020FEF7B9FADD20FEF7F4
:10318000B6FA0020FEF7B3FAF320FEF7B0FA0020FB
:10319000FEF7ADFAE320FEF7A1FA0520FEF7A7FA45
:1031A0000020FEF7A4FA0A20FEF7A1FA0020FEF79D
:1031B0009EFA1C20FEF79BFA0020FEF798FA3320B7
:1031C00000E0FDE2FEF793FA0020FEF790FA4420BB
:1031D000FEF78DFA0020FEF78AFA5020FEF787FAF4
:1031E0000020FEF784FA6220FEF781FA0020FEF745
:1031F0007EFA7820FEF77BFA0020FEF778FA882026
:10320000FEF775FA0020FEF772FA9720FEF76FFAC4
:103210000020FEF76CFAA620FEF769FA0020FEF700
:1032200066FAB720FEF763FA0020FEF760FAC220C4
:10323000FEF75DFA0020FEF75AFAC720FEF757FAAC
:103240000020FEF754FAD120FEF751FA0020FEF7D5
:103250004EFAD520FEF74BFA0020FEF748FADD20A3
:10326000FEF745FA0020FEF742FAF320FEF73FFA98
:103270000020FEF73CFAE420FEF730FA0120FEF7CA
:1032800036FA0020FEF733FA0120FEF730FA00206C
:10329000FEF72DFA0220FEF72AFA0020FEF727FAA1
:1032A0002A20FEF724FA0020FEF721FA3C20FEF740
:1032B0001EFA0020FEF71BFA4B20FEF718FA00203A
:1032C000FEF715FA5D20FEF712FA0020FEF70FFA5E
:1032D0007420FEF70CFA0020FEF709FA8420FEF7AE
:1032E00006FA0020FEF703FA9320FEF700FA00200A
:1032F000FEF7FDF9A220FEF7FAF90020FEF7F7F934
:10330000B320FEF7F4F90020FEF7F1F9BE20FEF736
:10331000EEF90020FEF7EBF9C420FEF7E8F90020F3
:10332000FEF7E5F9CD20FEF7E2F90020FEF7DFF920
:10333000D320FEF7DCF90020FEF7D9F9DD20FEF7F7
:10334000D6F90020FEF7D3F9F320FEF7D0F90020DC
:10335000FEF7CDF9E520FEF7C1F90020FEF7C7F929
:103360000020FEF7C4F90020FEF7C1F90020FEF7A7
:10337000BEF90220FEF7BBF90020FEF7B8F92920BC
:10338000FEF7B5F90020FEF7B2F93C20FEF7AFF9E1
:103390000020FEF7ACF94B20FEF7A9F90020FEF75C
:1033A000A6F95D20FEF7A3F90020FEF7A0F974202E
:1033B000FEF79DF90020FEF79AF98420FEF797F9B1
:1033C0000020FEF794F99320FEF791F90020FEF714
:1033D0008EF9A220FEF78BF90020FEF788F9B320C2
:1033E000FEF785F90020FEF782F9BE20FEF77FF98F
:1033F0000020FEF77CF9C420FEF779F90020FEF7E3
:1034000076F9CD20FEF773F90020FEF770F9D3208E
:10341000FEF76DF90020FEF76AF9DC20FEF767F988
:103420000020FEF764F9F320FEF761F90020FEF7B3
:103430005EF9E620FEF752F91120FEF758F9002058
:10344000FEF755F93420FEF752F90020FEF74FF948
:103450005620FEF74CF90020FEF749F97620FEF7DA
:1034600046F90020FEF743F97720FEF740F90020E7
:10347000FEF73DF96620FEF73AF90020FEF737F92E
:103480008820FEF734F90020FEF731F99920FEF785
:103490002EF90020FEF72BF9BB20FEF728F90020BB
:1034A000FEF725F99920FEF722F90020FEF71FF913
:1034B0006620FEF71CF90020FEF719F95520FEF7EB
:1034C00016F90020FEF713F95520FEF710F9002039
:1034D000FEF70DF94520FEF70AF90020FEF707F97F
:1034E0004320FEF704F90020FEF701F94420FEF71F
:1034F000FEF80020FEF7FBF8E720FEF7EFF8322099
:10350000FEF7F5F80020FEF7F2F85520FEF7EFF889
:103510000020FEF7ECF87620FEF7E9F80020FEF731
:10352000E6F86620FEF7E3F80020FEF7E0F86720F3
:10353000FEF7DDF80020FEF7DAF86720FEF7D7F88F
:103540000020FEF7D4F88720FEF7D1F80020FEF720
:10355000CEF89920FEF7CBF80020FEF7C8F8BB2084
:10356000FEF7C5F80020FEF7C2F89920FEF7BFF875
:103570000020FEF7BCF87720FEF7B9F80020FEF730
:10358000B6F84420FEF7B3F80020FEF7B0F8562056
:10359000FEF7ADF80020FEF7AAF82320FEF7A7F803
:1035A0000020FEF7A4F83320FEF7A1F80020FEF774
:1035B0009EF84520FEF79BF80020FEF798F8E820DB
:1035C000FEF78CF80020FEF792F80020FEF78FF847
:1035D0009920FEF78CF80020FEF789F88720FEF787
:1035E00086F80020FEF783F88820FEF780F8002098
:1035F000FEF77DF87720FEF77AF80020FEF777F8DF
:103600006620FEF774F80020FEF771F88820FEF7B8
:103610006EF80020FEF76BF8AA20FEF768F800208D
:10362000FEF765F8BB20FEF762F80020FEF75FF8B2
:103630009920FEF75CF80020FEF759F86620FEF7A7
:1036400056F80020FEF753F85520FEF750F80020FA
:10365000FEF74DF85520FEF74AF80020FEF747F830
:103660004420FEF744F80020FEF741F84420FEF71E
:103670003EF80020FEF73BF85520FEF738F8002012
:10368000FEF735F8E920FEF729F8AA20FEF72FF813
:103690000020FEF72CF80020FEF729F80020FEF7A6
:1036A00026F80020FEF71AF8AA20FEF720F8CF200F
:1036B000FEF714F80020FEF71AF80020FEF717F8BE
:1036C0000020FEF714F80020FEF711F80020FEF7A6
:1036D0000EF80020FEF70BF80020FEF708F8002097
:1036E000FEF705F80020FEF702F80020FDF7FFFFC7
:1036F0000020FDF7FCFF0020FDF7F9FF0020FDF79B
:10370000F6FF0020FDF7F3FF0020FDF7F0FF00209B
:10371000FDF7EDFF0020FDF7EAFFF020FDF7DEFFEB
:103720000020FDF7E4FF5020FDF7E1FF0020FDF74A
:10373000DEFF0020FDF7DBFF0020FDF7D8FFF320C0
:10374000FDF7CCFF0020FDF7D2FFF920FDF7C6FF03
:103750000620FDF7CCFF1020FDF7C9FF2920FDF75B
:10376000C6FF0020FDF7C3FF3A20FDF7B7FF552045
:10377000FDF7BDFF1120FDF7B1FF642003F091F8C4
:103780002920FDF7ABFF3520FDF7A8FF0020FDF74E
:10379000AEFF5120FDF7A2FFFF20FDF7A8FF532049
:1037A000FDF79CFF2C20FDF7A2FF5520FDF796FFAB
:1037B0008220FDF79CFF2C20FDF790FF01F027BF32
:1037C000A8427CD14FF4704355211846FDF7A1FF64
:1037D0004FF20104AA212046FDF79BFF651C5221F0
:1037E0002846FDF796FFA71C08213846FDF791FFF4
:1037F0004FF2040801214046FDF78BFF0D214FF4E5
:103800003040FDF786FF0D214BF20100FDF781FFEF
:103810000D214BF20200FDF77CFF4FF436493421B5
:103820004846FDF776FF34214BF20160FDF771FF4A
:1038300034214BF20260FDF76CFF4FF4314A0D2149
:103840005046FDF766FF4BF2011B0D215846FDF770
:1038500060FF0D214BF20210FDF75BFF34214FF4A6
:103860003740FDF756FF34214BF20170FDF751FF51
:1038700034214BF20270FDF74CFF00214FF432402F
:10388000FDF747FF00214BF20120FDF742FF002129
:103890004BF20220FDF73DFF24214FF43840FDF7A5
:1038A00038FF24214BF60100FDF733FF24214BF6AE
:1038B0000200FDF72EFF01214FF43F4000E0FCE342
:1038C000FDF727FF0F214FF43340FDF722FF0F21B3
:1038D0004BF20130FDF71DFF0F214BF20230FDF7D7
:1038E00018FF34214FF43940FDF713FF34214BF614
:1038F0000110FDF70EFF34214BF60210FDF709FF12
:1039000008214FF43540FDF704FF08214BF2015028
:10391000FDF7FFFE08214BF20250FDF7FAFE0321EE
:103920004FF44240FDF7F5FE24214FF43A40FDF7F5
:10393000F0FE24214BF60120FDF7EBFE24214BF68F
:103940000220FDF7E6FE00214FF43C40FDF7E1FECA
:1039500078214BF60140FDF7DCFE00214BF60240DA
:10396000FDF7D7FE00214FF43D40FDF7D2FE782150
:103970004BF60150FDF7CDFE00214BF60250FDF74E
:10398000C8FE00214FF43E40FDF7C3FE64214BF614
:103990000160FDF7BEFE00214FF45140FDF7B9FE76
:1039A00033214DF20110FDF7B4FE00214DF202105B
:1039B000FDF7AFFE34214DF20310FDF7AAFE002102
:1039C0004DF20410FDF7A5FE3A214DF20510FDF76A
:1039D000A0FE00214DF20610FDF79BFE4A214DF29C
:1039E0000710FDF796FE00214DF20810FDF791FE3D
:1039F0005C214DF20910FDF78CFE00214DF20A10FA
:103A0000FDF787FE81214DF20B10FDF782FE0021AC
:103A10004DF20C10FDF77DFEA6214DF20D10FDF7C5
:103A200078FE00214DF20E10FDF773FEE5214DF2F8
:103A30000F10FDF76EFE01214DF21010FDF769FE2B
:103A400013214DF21110FDF764FE01214DF2121009
:103A5000FDF75FFE54214DF21310FDF75AFE0121D0
:103A60004DF21410FDF755FE82214DF21510FDF7B1
:103A700050FE01214DF21610FDF74BFECA214DF20A
:103A80001710FDF746FE02214DF21810FDF741FE1A
:103A900000214DF21910FDF73CFE02214DF21A10E3
:103AA000FDF737FE01214DF21B10FDF732FE02211A
:103AB0004DF21C10FDF72DFE34214DF21D10FDF7C7
:103AC00028FE02214DF21E10FDF723FE67214DF264
:103AD0001F10FDF71EFE02214DF22010FDF719FE0A
:103AE00084214DF22110FDF714FE02214DF2221027
:103AF000FDF70FFEA4214DF22310FDF70AFE02216F
:103B00004DF22410FDF705FEB7214DF22510FDF70B
:103B100000FE02214DF22610FDF7FBFDCF214DF2F4
:103B20002710FDF7F6FD02214DF22810FDF7F1FDFB
:103B3000DE214DF22910FDF7ECFD02214DF22A1095
:103B4000FDF7E7FDF2214DF22B10FDF7E2FD02211A
:103B50004DF22C10FDF7DDFDFE214DF22D10FDF78D
:103B6000D8FD03214DF22E10FDF7D3FD10214DF2AB
:103B70002F10FDF7CEFD03214DF23010FDF7C9FDEA
:103B800033214DF23110FDF7C4FD03214DF2321007
:103B9000FDF7BFFD6D214DF23310FDF7BAFD002199
:103BA0004FF45240FDF7B5FD33214DF20120FDF7F2
:103BB000B0FD00214DF20220FDF7ABFD34214DF2A6
:103BC0000320FDF7A6FD00214DF20420FDF7A1FD25
:103BD0003A214DF20520FDF79CFD00214DF2062013
:103BE000FDF797FD4A214DF20720FDF792FD0021D8
:103BF0004DF20820FDF78DFD5C214DF20920FDF707
:103C000088FD00214DF20A20FDF783FD81214DF250
:103C10000B20FDF77EFD00214DF20C20FDF779FD14
:103C2000A6214DF20D20FDF774FD00214DF20E206E
:103C3000FDF76FFDE5214DF20F20FDF76AFD012133
:103C40004DF21020FDF765FD13214DF21120FDF717
:103C500060FD01214DF21220FDF75BFD54214DF274
:103C60001320FDF756FD01214DF21420FDF751FD03
:103C700082214DF21520FDF74CFD01214DF2162059
:103C8000FDF747FDCA214DF21720FDF742FD022145
:103C90004DF21820FDF73DFD00214DF21920FDF7F2
:103CA00038FD02214DF21A20FDF733FD01214DF2BE
:103CB0001B20FDF72EFD02214DF21C20FDF729FDF2
:103CC00034214DF21D20FDF724FD02214DF21E206E
:103CD000FDF71FFD67214DF21F20FDF71AFD0221A0
:103CE0004DF22020FDF715FD84214DF22120FDF736
:103CF00010FD02214DF22220FDF70BFDA4214DF213
:103D00002320FDF706FD02214DF22420FDF701FDE1
:103D1000B7214DF22520FDF7FCFC02214DF22620B3
:103D2000FDF7F7FCCF214DF22720FDF7F2FC022131
:103D30004DF22820FDF7EDFCDE214DF22920FDF7A4
:103D4000E8FC02214DF22A20FDF7E3FCF2214DF2BE
:103D50002B20FDF7DEFC02214DF22C20FDF7D9FCD3
:103D6000FE214DF22D20FDF7D4FC03214DF22E2033
:103D7000FDF7CFFC10214DF22F20FDF7CAFC0321E7
:103D80004DF23020FDF7C5FC33214DF23120FDF717
:103D9000C0FC03214DF23220FDF7BBFC6D214DF23A
:103DA0003320FDF7B6FC00214FF45340FDF7B1FC82
:103DB00033214DF20130FDF7ACFC00214DF2023011
:103DC000FDF7A7FC34214DF20330FDF7A2FC0021E2
:103DD0004DF20430FDF79DFC3A214DF20530FDF720
:103DE00098FC00214DF20630FDF793FC4A214DF27C
:103DF0000730FDF78EFC00214DF20830FDF789FCFD
:103E00005C214DF20930FDF784FC00214DF20A30AF
:103E1000FDF77FFC81214DF20B30FDF77AFC00218C
:103E20004DF20C30FDF775FCA6214DF20D30FDF77B
:103E300070FC00214DF20E30FDF76BFCE5214DF2D8
:103E40000F30FDF766FC01214DF21030FDF761FCEB
:103E500013214DF21130FDF75CFC01214DF21230BF
:103E6000FDF757FC54214DF21330FDF752FC0121B0
:103E70004DF21430FDF74DFC82214DF21530FDF767
:103E800048FC01214DF21630FDF743FCCA214DF2EA
:103E90001730FDF73EFC02214DF21830FDF739FCDA
:103EA00000214DF21930FDF734FC02214DF21A3099
:103EB000FDF72FFC01214DF21B30FDF72AFC0221FA
:103EC0004DF21C30FDF725FC34214DF21D30FDF77D
:103ED00020FC02214DF21E30FDF71BFC67214DF244
:103EE0001F30FDF716FC02214DF22030FDF711FCCA
:103EF00084214DF22130FDF70CFC02214DF22230DD
:103F0000FDF707FCA4214DF22330FDF702FC02214E
:103F10004DF22430FDF7FDFBB7214DF22530FDF7C2
:103F2000F8FB02214DF22630FDF7F3FBCF214DF2D5
:103F30002730FDF7EEFB02214DF22830FDF7E9FBBB
:103F4000DE214DF22930FDF7E4FB02214DF22A304B
:103F5000FDF7DFFBF2214DF22B30FDF7DAFB0221FA
:103F60004DF22C30FDF7D5FBFE214DF22D30FDF743
:103F7000D0FB03214DF22E30FDF7CBFB10214DF28B
:103F80002F30FDF7C6FB03214DF23030FDF7C1FBAA
:103F900033214DF23130FDF7BCFB03214DF23230BD
:103FA000FDF7B7FB6D214DF23330FDF7B2FB002179
:103FB0004FF45440FDF7ADFB33214DF20140FDF7C6
:103FC000A8FB00214DF20240FDF7A3FB34214DF286
:103FD0000340FDF79EFB00214DF20440FDF799FBE5
:103FE0003A214DF20540FDF794FB00214DF20640C9
:103FF000FDF78FFB4A214DF20740FDF78AFB0021B8
:104000004DF20840FDF785FB5C214DF20940FDF7BC
:1040100080FB00214DF20A40FDF77BFB81214DF230
:104020000B40FDF776FB00214DF20C40FDF771FBD4
:10403000A6214DF20D40FDF76CFB00214DF20E4024
:10404000FDF767FBE5214DF20F40FDF762FB012113
:104050004DF21040FDF75DFB13214DF21140FDF7CD
:1040600058FB01214DF21240FDF753FB54214DF254
:104070001340FDF74EFB01214DF21440FDF749FBC3
:1040800082214DF21540FDF744FB01214DF216400F
:10409000FDF73FFBCA214DF21740FDF73AFB022125
:1040A0004DF21840FDF735FB00214DF21940FDF7A8
:1040B00030FB02214DF21A4000E002E3FDF729FB3C
:1040C00001214DF21B40FDF724FB02214DF21C4063
:1040D000FDF71FFB34214DF21D40FDF71AFB0221B5
:1040E0004DF21E40FDF715FB67214DF21F40FDF715
:1040F00010FB02214DF22040FDF70BFB84214DF215
:104100002140FDF706FB02214DF22240FDF701FBA5
:10411000A4214DF22340FDF7FCFA02214DF2244088
:10412000FDF7F7FAB7214DF22540FDF7F2FA02212B
:104130004DF22640FDF7EDFACF214DF22740FDF775
:10414000E8FA02214DF22840FDF7E3FADE214DF2B4
:104150002940FDF7DEFA02214DF22A40FDF7D9FA97
:10416000F2214DF22B40FDF7D4FA02214DF22C4002
:10417000FDF7CFFAFE214DF22D40FDF7CAFA0321DB
:104180004DF22E40FDF7C5FA10214DF22F40FDF7FC
:10419000C0FA03214DF23040FDF7BBFA33214DF256
:1041A0003140FDF7B6FA03214DF23240FDF7B1FA86
:1041B0006D214DF23340FDF7ACFA00214FF455402C
:1041C000FDF7A7FA33214DF20150FDF7A2FA0021C5
:1041D0004DF20250FDF79DFA34214DF20350FDF7E8
:1041E00098FA00214DF20450FDF793FA3A214DF26E
:1041F0000550FDF78EFA00214DF20650FDF789FAC1
:104200004A214DF20750FDF784FA00214DF2085083
:10421000FDF77FFA5C214DF20950FDF77AFA002193
:104220004DF20A50FDF775FA81214DF20B50FDF762
:1042300070FA00214DF20C50FDF76BFAA6214DF2F9
:104240000D50FDF766FA00214DF20E50FDF761FAB0
:10425000E5214DF20F50FDF75CFA01214DF21050AF
:10426000FDF757FA13214DF21150FDF752FA0121D3
:104270004DF21250FDF74DFA54214DF21350FDF757
:1042800048FA01214DF21450FDF743FA82214DF214
:104290001550FDF73EFA01214DF21650FDF739FA9F
:1042A000CA214DF21750FDF734FA02214DF2185091
:1042B000FDF72FFA00214DF21950FDF72AFA0221DD
:1042C0004DF21A50FDF725FA01214DF21B50FDF772
:1042D00020FA02214DF21C50FDF71BFA34214DF259
:1042E0001D50FDF716FA02214DF21E50FDF711FA8E
:1042F00067214DF21F50FDF70CFA02214DF22050BC
:10430000FDF707FA84214DF22150FDF702FA022150
:104310004DF22250FDF7FDF9A4214DF22350FDF797
:10432000F8F902214DF22450FDF7F3F9B7214DF2CF
:104330002550FDF7EEF902214DF22650FDF7E9F97F
:10434000CF214DF22750FDF7E4F902214DF228501C
:10435000FDF7DFF9DE214DF22950FDF7DAF90221F0
:104360004DF22A50FDF7D5F9F2214DF22B50FDF711
:10437000D0F902214DF22C50FDF7CBF9FE214DF280
:104380002D50FDF7C6F903214DF22E50FDF7C1F96E
:1043900010214DF22F50FDF7BCF903214DF23050A2
:1043A000FDF7B7F933214DF23150FDF7B2F9032192
:1043B0004DF23250FDF7ADF96D214DF23350FDF75E
:1043C000A8F900214FF45640FDF7A3F933214DF22F
:1043D0000160FDF79EF900214DF20260FDF799F9A9
:1043E00034214DF20360FDF794F900214DF2046091
:1043F000FDF78FF93A214DF20560FDF78AF90021AA
:104400004DF20660FDF785F94A214DF20760FDF790
:1044100080F900214DF20860FDF77BF95C214DF237
:104420000960FDF776F900214DF20A60FDF771F998
:1044300081214DF20B60FDF76CF900214DF20C600B
:10444000FDF767F9A6214DF20D60FDF762F9002135
:104450004DF20E60FDF75DF9E5214DF20F60FDF7BD
:1044600058F901214DF21060FDF753F913214DF277
:104470001160FDF74EF901214DF21260FDF749F987
:1044800054214DF21360FDF744F901214DF21460FF
:10449000FDF73FF982214DF21560FDF73AF9012150
:1044A0004DF21660FDF735F9CA214DF21760FDF7A0
:1044B00030F902214DF21860FDF72BF900214DF281
:1044C0001960FDF726F902214DF21A60FDF721F976
:1044D00001214DF21B60FDF71CF902214DF21C6019
:1044E000FDF717F934214DF21D60FDF712F9022195
:1044F0004DF21E60FDF70DF967214DF21F60FDF7CB
:1045000008F902214DF22060FDF703F984214DF2F4
:104510002160FDF7FEF802214DF22260FDF7F9F867
:10452000A4214DF22360FDF7F4F802214DF224603E
:10453000FDF7EFF8B7214DF22560FDF7EAF802210B
:104540004DF22660FDF7E5F8CF214DF22760FDF72B
:10455000E0F802214DF22860FDF7DBF8DE214DF294
:104560002960FDF7D6F802214DF22A60FDF7D1F857
:10457000F2214DF22B60FDF7CCF802214DF22C60B8
:10458000FDF7C7F8FE214DF22D60FDF7C2F80321BB
:104590004DF22E60FDF7BDF810214DF22F60FDF7B2
:1045A000B8F803214DF23060FDF7B3F833214DF236
:1045B0003160FDF7AEF803214DF23260FDF7A9F846
:1045C0006D214DF23360FDF7A4F855211846FDF733
:1045D000A0F8AA212046FDF79CF852212846FDF7B5
:1045E00098F808213846FDF794F800214046FDF779
:1045F00090F8CC215046FDF78CF800215846FDF785
:1046000088F805214846FDF784F870214FF43740BB
:10461000FDF77FF870214BF20170FDF77AF8012168
:104620004FF43840FDF775F803214BF60100FDF714
:1046300070F803214BF60200FDF76BF803214BF6EF
:104640000300FDF766F802214FF43C40FDF761F8E6
:1046500000214BF60140FDF75CF800214BF60240CB
:10466000FDF757F8D0214FF44940FDF752F80221E9
:104670004CF60110FDF74DF850214CF60210FDF7F5
:1046800048F850214CF60310FDF743F850214CF642
:104690000410FDF73EF800214FF45450FDF739F8AF
:1046A00055214FF46850FDF734F84FF48850FDF76A
:1046B00015F8782002F0C7F84FF42450FDF70EF8F3
:1046C0005EE3A0F513434FF480744FF4E06740F2CB
:1046D000022840F23F194FF4274A253B7ED0FD1DAA
:1046E000A0F51343283B7AD0A0F513434FF4887B01
:1046F0004FF41C5A203B73D0A0F51343313B70D0CC
:10470000A0F5A843083B6DD0A0F5A8534FF4407B1B
:10471000053B68D0A0F53543053B65D088427CD188
:1047200000210846FCF7F5FF00210846FCF7F1FFE1
:10473000142002F0B6F800210846FCF7EAFF002139
:104740000846FCF7E6FF00210846FCF7E2FF0021DF
:104750000846FCF7DEFF0121A420FCF7DAFF142055
:1047600002F09FF851466020FCF7D3FF40F60601A7
:104770000820FCF7CEFF2B1F19463020FCF7C9FF9D
:1047800001213120FCF7C5FF04213220FCF7C1FFD5
:10479000A11C3320FCF7BDFF59463420FCF7B9FFBC
:1047A000E11C3520FCF7B5FF1F213620FCF7B1FFD7
:1047B00019463720FCF7ADFF01213820FCF7A9FF8F
:1047C00004213920FCF7A5FF15219020FCF7A1FF5B
:1047D0004FF482611020FCF79CFF06E06EE03EE1A2
:1047E0002AE2CEE2A8E3FDE3FDE340F247211120F7
:1047F000FCF78FFF4FF4DE711220FCF78AFF79007F
:104800001320FCF786FF782002F04BF821460120A8
:10481000FCF77FFF6100022000E0FDE3FCF779FF79
:1048200041F230010320FCF774FF08210A20FCF755
:1048300070FF00210C20FCF76CFF20210E20FCF7FC
:1048400068FF00210F20FCF764FF00212020FCF707
:1048500060FF00212120FCF75CFF3D212A20FCF7AE
:1048600058FF142002F01DF82D212920FCF751FFDC
:1048700000215020FCF74DFF4DF2EF015120FCF7D5
:1048800048FF00215220FCF744FF49465320FCF723
:1048900040FF00216120FCF73CFF00216A20FCF76B
:1048A00038FF59469220FCF734FF05219320FCF78E
:1048B00030FF21460720FCF72CFF01E747F6F00107
:1048C000E520FCF726FF21460120FCF722FF3946B0
:1048D0000220FCF71EFF41F230010320FCF719FF14
:1048E00000210420FCF715FF41460820FCF711FFCA
:1048F00000210920FCF70DFF00210A20FCF709FF29
:1049000000210C20FCF705FF00210D20FCF701FF22
:1049100000210F20FCF7FDFE00211020FCF7F9FE1E
:1049200007211120FCF7F5FE00211220FCF7F1FE13
:1049300000211320FCF7EDFE00210720FCF7E9FE23
:1049400041F290611020FCF7E4FE40F22721112093
:10495000FCF7DFFE9D211220FCF7DBFE4FF4C8516F
:104960001320FCF7D6FE25212920FCF7D2FE0D21CD
:104970002B20FCF7CEFE07213020FCF7CAFE40F2C8
:1049800003313120FCF7C5FE03213220FCF7C1FEC4
:1049900040F206213520FCF7BCFE08213620FCF74A
:1049A000B8FE40F206413720FCF7B3FE4FF44171E8
:1049B0003820FCF7AEFE07213920FCF7AAFE40F2B2
:1049C00002613C20FCF7A5FE08213D20FCF7A1FE7A
:1049D00000215020FCF79DFEEF215120FCF799FEAD
:1049E00000215220FCF795FE49465320FCF791FE2A
:1049F00051466020FCF78DFE01216120FCF789FE05
:104A000000216A20FCF785FE00218020FCF781FE52
:104A100000218120FCF77DFE00218220FCF779FE39
:104A200000218320FCF775FE00218420FCF771FE35
:104A300000218520FCF76DFE10219020FCF769FE17
:104A40004FF4C0619220FCF764FE40F2331107205E
:104A5000FCF75FFE22210020FCF75BFE30E641F20E
:104A60008F01EC20FCF755FE41F23421EF20FCF7DA
:104A700050FE21460120FCF74CFE39460220FCF78F
:104A800048FE41F230010320FCF743FE00210420E0
:104A9000FCF73FFE41460820FCF73BFE00210920C1
:104AA000FCF737FE00210A20FCF733FE01210C2021
:104AB000FCF72FFE00210D20FCF72BFE00210F201C
:104AC000FCF727FE00211020FCF723FE0721112010
:104AD000FCF71FFE00211220FCF71BFE0021132013
:104AE000FCF717FE01210720FCF713FE322001F02E
:104AF000D8FE41F290411020FCF70BFE40F2272136
:104B00001120FCF706FE322001F0CBFE8A21122094
:104B1000FCF7FFFD322001F0C4FE4FF4D05113200A
:104B2000FCF7F7FD06212920FCF7F3FD0D212B20D2
:104B3000FCF7EFFD322001F0B4FE00212020FCF74D
:104B4000E8FD00212120FCF7E4FD322001F0A9FE60
:104B500000213020FCF7DDFD40F204613120FCF73C
:104B6000D8FD40F205313220FCF7D3FD002135207D
:104B7000FCF7CFFD40F609413620FCF7CAFD4FF4A3
:104B800001713720FCF7C5FD40F201313820FCF7F8
:104B9000C0FD29463920FCF7BCFD00213C20FCF774
:104BA000B8FD40F60A213D20FCF7B3FD322001F0AC
:104BB00078FE00215020FCF7ACFDEF215120FCF7DE
:104BC000A8FD00215220FCF7A4FD49465320FCF724
:104BD000A0FD51466020FCF79CFD01216120FCF7FF
:104BE00098FD00216A20FCF794FD00218020FCF74D
:104BF00090FD00218120FCF78CFD00218220FCF734
:104C000088FD00218320FCF784FD00218420FCF72F
:104C100080FD00218520FCF77CFD10219020FCF711
:104C200078FD4FF4C0619220FCF773FD40F2331120
:104C30000720FCF76EFD43E500210846FCF769FDFF
:104C400021460120FCF765FD39460220FCF761FD95
:104C500041F230010320FCF75CFD00210420FCF749
:104C600058FD41460820FCF754FD00210920FCF7BF
:104C700050FD00210A20FCF74CFD01210C20FCF71F
:104C800048FD00210D20FCF744FD00210F20FCF71A
:104C900040FD322001F005FE40F201110720FCF733
:104CA00038FD322001F0FDFD4FF486511020FCF755
:104CB00030FD07211120FCF72CFD59461220FCF78E
:104CC00028FD4FF430611320FCF723FD002129203B
:104CD000FCF71FFD44F210012B20FCF71AFD002108
:104CE0005020FCF716FDEF215120FCF712FD0021AA
:104CF0005220FCF70EFD49465320FCF70AFD5146B1
:104D00006020FCF706FD01216120FCF702FD002177
:104D10006A20FCF7FEFC00218020FCF7FAFC002151
:104D20008120FCF7F6FC00218220FCF7F2FC002138
:104D30008320FCF7EEFC00218420FCF7EAFC002134
:104D40008520FCF7E6FC10219020FCF7E2FC002116
:104D50009220FCF7DEFC01219320FCF7DAFC594697
:104D60009520FCF7D6FC00219720FCF7D2FC00210F
:104D70009820FCF7CEFC40F273110720FCF7C9FC29
:104D800084E241F21401E720FCF7C3FC2146012034
:104D9000FCF7BFFC4FF400710220FCF7BAFC41F2B3
:104DA00038010320FCF7B5FC41460820FCF7B1FCB4
:104DB00000210920FCF7ADFC00210A20FCF7A9FC2A
:104DC00000210C20FCF7A5FC00210D20FCF7A1FC24
:104DD00000210F20FCF79DFC00211020FCF799FC1E
:104DE00007211120FCF795FC00211220FCF791FC13
:104DF00000211320FCF78DFCC82001F052FD41F288
:104E000090611020FCF785FC40F227211120FCF76F
:104E100080FC322001F045FD0C211220FCF779FCCA
:104E2000322001F03EFD4FF400611320FCF771FCCD
:104E300011212920FCF76DFC0B212B20FCF769FCCC
:104E4000322001F02EFD00212020FCF762FC4946B3
:104E50002120FCF75EFC00213020FCF75AFC4FF4C7
:104E6000837319463120FCF754FC00213220FCF7F3
:104E700050FC4FF401713520FCF74BFC41F20A6104
:104E80003620FCF746FC29463720FCF742FC194641
:104E90003820FCF73EFC29463920FCF73AFC40F26A
:104EA00002413C20FCF735FC40F60F413D20FCF769
:104EB00030FC00215020FCF72CFCEF215120FCF7A6
:104EC00028FC00215220FCF724FC49465320FCF723
:104ED00020FC51466020FCF71CFC01216120FCF7FE
:104EE00018FC00216A20FCF714FC00218020FCF74C
:104EF00010FC00218120FCF70CFC00218220FCF733
:104F000008FC00218320FCF704FC00218420FCF72E
:104F100000FC00218520FCF7FCFB10219020FCF711
:104F2000F8FB4FF4C0619220FCF7F3FB40F2331121
:104F30000720FCF7EEFB6AE321460120FCF7E9FBC2
:104F400039460220FCF7E5FB41F230010320FCF773
:104F5000E0FB00210420FCF7DCFB40F207210820E5
:104F6000FCF7D7FB00210920FCF7D3FB00210A2026
:104F7000FCF7CFFB00210C20FCF7CBFB00210D2020
:104F8000FCF7C7FB00210F20FCF7C3FB142001F046
:104F900088FC41F2B0611020FCF7BBFB012111201D
:104FA000FCF7B7FB01211720FCF7B3FB4FF49C7112
:104FB0001220FCF7AEFB4FF400611320FCF7A9FBB5
:104FC00009212920FCF7A5FB09212A20FCF7A1FBD8
:104FD0000021A420FCF79DFB00215020FCF799FB49
:104FE000EF2101E04AE052E15120FCF792FB002161
:104FF0005220FCF78EFB49465320FCF78AFB5146B2
:105000006020FCF786FB01216120FCF782FB002178
:105010006A20FCF77EFB00E034E200218020FCF7F0
:1050200078FB00218120FCF774FB00218220FCF733
:1050300070FB00218320FCF76CFB00218420FCF72F
:1050400068FB00218520FCF764FB13219020FCF70E
:1050500060FB00219220FCF75CFB03219320FCF70E
:1050600058FB59469520FCF754FB40F2731107207A
:10507000FCF74FFB322001F014FCC8E200210720AE
:10508000FCF747FB322001F00CFC4FF48E7112202C
:10509000FCF73FFB0121A420FCF73BFB0F2108207C
:1050A000FCF737FB08210A20FCF733FB08210D2011
:1050B000FCF72FFB29463020FCF72BFB0721312082
:1050C000FCF727FB40F203613220FCF722FB394654
:1050D0003320FCF71EFB41463420FCF71AFB02216B
:1050E0003520FCF716FB41F60F713620FCF711FB5B
:1050F00029463720FCF70DFB00213820FCF709FB7F
:1051000000213920FCF705FB29463A20FCF701FB7A
:1051100000213B20FCF7FDFA07213C20FCF7F9FABF
:1051200000213D20FCF7F5FA322001F0BAFB012105
:105130000720FCF7EEFA01211720FCF7EAFA3220EB
:1051400001F0AFFB4FF4BD511020FCF7E2FA40F242
:1051500017211120FCF7DDFA4FF48F711220FCF7B4
:10516000D8FA4FF470611320FCF7D3FA00212A20FB
:10517000FCF7CFFA0A212920FCF7CBFA4FF49F71F4
:105180001220FCF7C6FA00215020FCF7C2FAEF21EA
:105190005120FCF7BEFA00215220FCF7BAFA49462A
:1051A0005320FCF7B6FA51466020FCF7B2FA012111
:1051B0006120FCF7AEFA00216A20FCF7AAFA002170
:1051C0008020FCF7A6FA00218120FCF7A2FA00213A
:1051D0008220FCF79EFA00218320FCF79AFA002136
:1051E0008420FCF796FA00218520FCF792FA13211F
:1051F0009020FCF78EFA59469220FCF78AFA052196
:105200009320FCF786FA00219520FCF782FA002112
:105210009720FCF77EFA00219820FCF77AFA2146C5
:105220000120FCF776FA39460220FCF772FA41F2C7
:1052300038010320FCF76DFA00210420FCF769FA1D
:1052400000210C20FCF765FA00210F20FCF761FA21
:1052500000212020FCF75DFA00212120FCF759FAFB
:1052600021210720FCF755FA142001F01AFB6121D7
:105270000720FCF74EFA142001F013FB40F27311E3
:105280000720FCF746FA142001F00BFBBFE10021D8
:105290000846FCF73EFA00210846FCF73AFA0021DE
:1052A0000846FCF736FA00210846FCF732FA0121DD
:1052B000A420FCF72EFA142001F0F3FA51466020E6
:1052C000FCF727FA41460820FCF723FA4FF4057152
:1052D0003020FCF71EFA43F215713120FCF719FA61
:1052E00040F204613220FCF714FA40F616613320D4
:1052F000FCF70FFA42F211213420FCF70AFA4FF4BE
:10530000A8513520FCF705FA48F207513620FCF782
:1053100000FA41F207413720FCF7FBF941F2034163
:105320003820FCF7F6F920213920FCF7F2F91A2190
:105330009020FCF7EEF900211020FCF7EAF9072194
:105340001120FCF7E6F900211220FCF7E2F9002118
:105350001320FCF7DEF9142001F0A3FA4FF4E66104
:105360001020FCF7D6F940F237111120FCF7D1F9E3
:10537000142001F096FA4FF4DC711220FCF7C9F901
:10538000142001F08EFA4FF470611320FCF7C1F97C
:1053900080212A20FCF7BDF948212920FCF7B9F922
:1053A000142001F07EFA21460120FCF7B2F93946BB
:1053B0000220FCF7AEF941F238010320FCF7A9F90D
:1053C00041460820FCF7A5F900210A20FCF7A1F9C5
:1053D00000210C20FCF79DF900210D20FCF799F924
:1053E00030210E20FCF795F900215020FCF791F9AF
:1053F000EF215120FCF78DF900215220FCF789F9AB
:1054000049465320FCF785F951466020FCF781F9A5
:1054100001216120FCF77DF900216A20FCF779F970
:1054200011219020FCF775F94FF4C0619220FCF730
:1054300070F940F202419320FCF76BF902219420AD
:10544000FCF767F9142001F02CFA01210720FCF782
:1054500060F9142001F025FA61210720FCF759F9C1
:1054600040F273110720FCF754F900212020FCF7CB
:1054700050F900212120FCF74CF922210020FCF7F3
:1054800048F9C4E0A0F58A4131397DD0A0F58A41C0
:1054900035397AD09042F4D1E220FCF71FF91D2073
:1054A000FCF725F90220FCF722F90420FCF71FF98C
:1054B000642001F0C8F9E020FCF710F90120FCF7A6
:1054C00016F90A2001F0EDF9E020FCF707F90320B6
:1054D000FCF70DF90C2001F0E4F90120FCF7FEF8CF
:1054E0000A2001F0DEF9E620FCF7F8F82F20FCF79F
:1054F000FEF8FF20FCF7FBF8FF20FCF7F8F8B020DF
:10550000FCF7ECF82020FCF7F2F80020FCF7EFF8AD
:105510000320FCF7ECF840F21F30FCF7E8F801201C
:10552000FCF7E5F840F2DF10FCF7E1F80020FCF7AB
:10553000DEF8B420FCF7D2F80420FCF7D8F840F2EB
:105540001F40FCF7D4F80020FCF7D1F82E20FCF720
:10555000CEF80020FCF7CBF80020FCF7C8F80020BC
:10556000FCF7C5F80020FCF7C2F8B620FCF7B6F847
:105570000220FCF7BCF84FF40370FCF7B8F80020E9
:10558000FCF7B5F8172001E04DE000E1FCF7AFF8BB
:105590001520FCF7ACF80020FCF7A9F80020FCF778
:1055A000A6F8F020FCF79AF80320FCF7A0F82920D1
:1055B000FCF794F8D020FCF791F80020FCF797F85E
:1055C000BE20FCF78BF80520FCF791F8FE20FCF7D5
:1055D0008EF80120FCF78BF80020FCF788F80020FB
:1055E000FCF785F80020FCF782F8B820FCF776F885
:1055F0000320FCF77CF80120FCF779F8BA20FCF7CF
:105600006DF80120FCF773F86420FCF7CFFB002055
:10561000FCF7EFFBFA49012008603046FCF783FDF8
:1056200021B0BDE8F08F01210020FCF772F80A20BC
:1056300001F037F941F228611020FCF76AF80E21D9
:105640001220FCF766F840F639211320FCF761F8C8
:105650000A2001F026F940211120FCF75AF85021C8
:105660001520FCF756F80A2001F01BF91E21122024
:10567000FCF74FF80A2001F014F94FF4B151102053
:10568000FCF747F842F639211320FCF742F80A20CC
:1056900001F007F921460120FCF73BF859460220AA
:1056A000FCF737F841F238010320FCF732F84146A5
:1056B0000820FCF72EF808210A20FCF72AF8002120
:1056C0003020FCF726F840F202413120FCF721F8A7
:1056D0004FF483713220FCF71CF840F20351332061
:1056E000FCF717F84FF482713420FCF712F840F2FF
:1056F00001313520FCF70DF829463620FCF709F872
:1057000040F205313720FCF704F84FF402713820DD
:10571000FBF7FFFF40F60B713920FBF7FAFF022180
:105720004120FBF7F6FF51466020FBF7F2FF012115
:105730006120FBF7EEFF4FF404719020FBF7E9FFC7
:105740004FF485719220FBF7E4FF04219320FBF7CF
:10575000E0FF2146A020FBF7DCFF01210720FBF73B
:10576000D8FF21210720FBF7D4FF23210720FBF7D7
:10577000D0FF33210720FBF7CCFF40F23311072085
:10578000FBF7C7FF0021A020FBF7C3FF3FE7302155
:105790001520FBF7BEFF10219A20FBF7BAFF20214E
:1057A0001120FBF7B6FF43F228411020FBF7B1FFB1
:1057B00002211220FBF7ADFF41F238011320FBF765
:1057C000A8FF282001F06DF812210846FBF7A1FF81
:1057D000282001F066F843F220411020FBF799FFE2
:1057E00043F238011320FBF794FF462001F059F8EB
:1057F00000213020FBF78DFF40F202413120FBF702
:1058000088FF40F207313220FBF783FF4FF44171EC
:105810003320FBF77EFF04213420FBF77AFF40F2B0
:1058200001413520FBF775FF29463620FBF771FF54
:1058300040F205313720FBF76CFF4FF4C263194685
:105840003820FBF766FF19463920FBF762FF214637
:105850000120FBF75EFF59460220FBF75AFF41F299
:1058600030010320FBF755FF40F608010820FBF745
:1058700050FF08210A20FBF74CFF51466020FBF740
:1058800048FF01216120FBF744FF4FF49F719020F6
:10589000FBF73FFF21469220FBF73BFF2146932079
:1058A000FBF737FF4FF44051A020FBF732FF1021E8
:1058B000A320FBF72EFF01210720FBF72AFF212160
:1058C0000720FBF726FF23210720FBF722FF3321C8
:1058D0000720FBF71EFF40F233110720FBF719FFEB
:1058E00095E62DE9F8438146089E9846454DA888DF
:1058F000A0F5D043043B02D1A879012807D0A2EB40
:105900000900401C87B20C464FF0D8452CE00C46ED
:105910002888811A491E89B24246A0EB0900401E20
:1059200083B20020A8712A276F814FF02B08A5F8B9
:105930000C8020460096FFF7D4FF0120A871A5F83F
:105940000A80AF81BDE8F88321464846FBF704FF93
:10595000FBF7ECFE002003E0A5F88060401C80B25D
:10596000B842F9D3641CA4B24445EDD9EAE72DE965
:10597000F0478246DDF820800E46A2EB0A00401C6C
:1059800085B2981B401C87B200244FF0D84914E020
:10599000301981B25046FBF7DFFEFBF7C7FE00224D
:1059A00007E004FB052038F81000A9F88000521C1D
:1059B00092B2AA42F5D3641CA4B2BC42E8D3BDE8BB
:1059C000F0872DE9FE4F00250026171AA3EB0108EA
:1059D00081468A46681E002F03DD4FF001010191C8
:1059E00007E003D14FF00001019102E00190C7F1FF
:1059F0000007B8F1000F07DD4FF0010000900BE049
:105A0000BC8240424C00002003D14FF000000090C7
:105A100002E00090C8F10008474501DD3C4600E087
:105A200044464FF0000B601C029015E01FFA8AF10B
:105A30001FFA89F0FCF713F93D444644A54202DD04
:105A40002D1B01988144A64202DD361B009882443A
:105A50000BF1010B1FFA8BFB02988345E6DDBDE8D5
:105A6000FE8FF0B505460E4614461F4633462246C5
:105A700031462846FFF7A5FF3B462A4631462846D1
:105A8000FFF79FFF3B46224639462846FFF799FF1E
:105A90003B46224631462046BDE8F04091E72DE9DD
:105AA000FC4F07468846002415460320A0EB42061B
:105AB0004BE0A8EB050081B207EB040A01901FFA46
:105AC0008AF0FCF7CCF8A8EB040081B207EB0509DB
:105AD00000901FFA89F0FCF7C2F808EB040B1FFADC
